{
  "address": "0xA6e904D88370D25e8Af3c6Eec7ecdD23a8d8BC83",
  "abi": [
    {
      "inputs": [],
      "stateMutability": "nonpayable",
      "type": "constructor"
    },
    {
      "anonymous": false,
      "inputs": [
        {
          "indexed": true,
          "internalType": "uint48",
          "name": "tokenId",
          "type": "uint48"
        },
        {
          "indexed": false,
          "internalType": "bytes16",
          "name": "stamp",
          "type": "bytes16"
        },
        {
          "indexed": false,
          "internalType": "uint256",
          "name": "salt",
          "type": "uint256"
        },
        {
          "indexed": false,
          "internalType": "uint24",
          "name": "index",
          "type": "uint24"
        }
      ],
      "name": "Acquired",
      "type": "event"
    },
    {
      "anonymous": false,
      "inputs": [
        {
          "indexed": true,
          "internalType": "uint16",
          "name": "channelId",
          "type": "uint16"
        },
        {
          "indexed": false,
          "internalType": "uint48",
          "name": "supply",
          "type": "uint48"
        },
        {
          "indexed": false,
          "internalType": "uint256",
          "name": "amount",
          "type": "uint256"
        }
      ],
      "name": "AddedChannel",
      "type": "event"
    },
    {
      "anonymous": false,
      "inputs": [
        {
          "indexed": true,
          "internalType": "address",
          "name": "owner",
          "type": "address"
        },
        {
          "indexed": true,
          "internalType": "address",
          "name": "approved",
          "type": "address"
        },
        {
          "indexed": true,
          "internalType": "uint256",
          "name": "tokenId",
          "type": "uint256"
        }
      ],
      "name": "Approval",
      "type": "event"
    },
    {
      "anonymous": false,
      "inputs": [
        {
          "indexed": true,
          "internalType": "address",
          "name": "owner",
          "type": "address"
        },
        {
          "indexed": true,
          "internalType": "address",
          "name": "operator",
          "type": "address"
        },
        {
          "indexed": false,
          "internalType": "bool",
          "name": "approved",
          "type": "bool"
        }
      ],
      "name": "ApprovalForAll",
      "type": "event"
    },
    {
      "anonymous": false,
      "inputs": [
        {
          "indexed": false,
          "internalType": "address",
          "name": "creator",
          "type": "address"
        },
        {
          "indexed": false,
          "internalType": "address",
          "name": "manager",
          "type": "address"
        },
        {
          "indexed": false,
          "internalType": "string",
          "name": "URI",
          "type": "string"
        }
      ],
      "name": "ProjectSetup",
      "type": "event"
    },
    {
      "anonymous": false,
      "inputs": [
        {
          "indexed": false,
          "internalType": "address",
          "name": "bearer",
          "type": "address"
        },
        {
          "indexed": true,
          "internalType": "uint48",
          "name": "tokenId",
          "type": "uint48"
        }
      ],
      "name": "Redeemed",
      "type": "event"
    },
    {
      "anonymous": false,
      "inputs": [
        {
          "indexed": true,
          "internalType": "address",
          "name": "from",
          "type": "address"
        },
        {
          "indexed": true,
          "internalType": "address",
          "name": "to",
          "type": "address"
        },
        {
          "indexed": true,
          "internalType": "uint256",
          "name": "tokenId",
          "type": "uint256"
        }
      ],
      "name": "Transfer",
      "type": "event"
    },
    {
      "anonymous": false,
      "inputs": [
        {
          "indexed": true,
          "internalType": "address",
          "name": "account",
          "type": "address"
        },
        {
          "indexed": true,
          "internalType": "bytes4",
          "name": "selector",
          "type": "bytes4"
        },
        {
          "indexed": true,
          "internalType": "uint16",
          "name": "channelId",
          "type": "uint16"
        },
        {
          "indexed": false,
          "internalType": "bool",
          "name": "grant",
          "type": "bool"
        }
      ],
      "name": "UpdateAuthorization",
      "type": "event"
    },
    {
      "inputs": [],
      "name": "ACQUISITION_LIMIT",
      "outputs": [
        {
          "internalType": "uint256",
          "name": "",
          "type": "uint256"
        }
      ],
      "stateMutability": "view",
      "type": "function"
    },
    {
      "inputs": [],
      "name": "CHANNEL_LIMIT",
      "outputs": [
        {
          "internalType": "uint16",
          "name": "",
          "type": "uint16"
        }
      ],
      "stateMutability": "view",
      "type": "function"
    },
    {
      "inputs": [],
      "name": "NFT_LIMIT",
      "outputs": [
        {
          "internalType": "uint256",
          "name": "",
          "type": "uint256"
        }
      ],
      "stateMutability": "view",
      "type": "function"
    },
    {
      "inputs": [],
      "name": "URI",
      "outputs": [
        {
          "internalType": "string",
          "name": "",
          "type": "string"
        }
      ],
      "stateMutability": "view",
      "type": "function"
    },
    {
      "inputs": [],
      "name": "VERSION",
      "outputs": [
        {
          "internalType": "string",
          "name": "",
          "type": "string"
        }
      ],
      "stateMutability": "view",
      "type": "function"
    },
    {
      "inputs": [
        {
          "components": [
            {
              "internalType": "uint16",
              "name": "channelId",
              "type": "uint16"
            },
            {
              "internalType": "uint16",
              "name": "qty",
              "type": "uint16"
            },
            {
              "internalType": "uint256",
              "name": "salt",
              "type": "uint256"
            },
            {
              "internalType": "bytes16[]",
              "name": "stamps",
              "type": "bytes16[]"
            }
          ],
          "internalType": "struct Rouge.Acquisition[]",
          "name": "acquisitions",
          "type": "tuple[]"
        }
      ],
      "name": "acquire",
      "outputs": [],
      "stateMutability": "payable",
      "type": "function"
    },
    {
      "inputs": [
        {
          "components": [
            {
              "internalType": "uint48",
              "name": "supply",
              "type": "uint48"
            },
            {
              "internalType": "uint48",
              "name": "totalAcquired",
              "type": "uint48"
            },
            {
              "internalType": "uint48",
              "name": "totalRedeemed",
              "type": "uint48"
            },
            {
              "internalType": "address",
              "name": "token",
              "type": "address"
            },
            {
              "internalType": "uint256",
              "name": "amount",
              "type": "uint256"
            }
          ],
          "internalType": "struct Rouge.Channel[]",
          "name": "channel",
          "type": "tuple[]"
        }
      ],
      "name": "addChannels",
      "outputs": [],
      "stateMutability": "nonpayable",
      "type": "function"
    },
    {
      "inputs": [
        {
          "internalType": "address",
          "name": "to",
          "type": "address"
        },
        {
          "internalType": "uint256",
          "name": "tokenId",
          "type": "uint256"
        }
      ],
      "name": "approve",
      "outputs": [],
      "stateMutability": "nonpayable",
      "type": "function"
    },
    {
      "inputs": [
        {
          "internalType": "address",
          "name": "token",
          "type": "address"
        },
        {
          "internalType": "address",
          "name": "spender",
          "type": "address"
        },
        {
          "internalType": "uint256",
          "name": "amount",
          "type": "uint256"
        }
      ],
      "name": "approveToken",
      "outputs": [],
      "stateMutability": "nonpayable",
      "type": "function"
    },
    {
      "inputs": [
        {
          "internalType": "address",
          "name": "owner",
          "type": "address"
        }
      ],
      "name": "balanceOf",
      "outputs": [
        {
          "internalType": "uint256",
          "name": "",
          "type": "uint256"
        }
      ],
      "stateMutability": "view",
      "type": "function"
    },
    {
      "inputs": [
        {
          "internalType": "uint256",
          "name": "tokenId",
          "type": "uint256"
        }
      ],
      "name": "getApproved",
      "outputs": [
        {
          "internalType": "address",
          "name": "",
          "type": "address"
        }
      ],
      "stateMutability": "view",
      "type": "function"
    },
    {
      "inputs": [],
      "name": "getChainId",
      "outputs": [
        {
          "internalType": "uint256",
          "name": "",
          "type": "uint256"
        }
      ],
      "stateMutability": "view",
      "type": "function"
    },
    {
      "inputs": [],
      "name": "getInfos",
      "outputs": [
        {
          "internalType": "string",
          "name": "uri",
          "type": "string"
        },
        {
          "components": [
            {
              "internalType": "uint48",
              "name": "supply",
              "type": "uint48"
            },
            {
              "internalType": "uint48",
              "name": "totalAcquired",
              "type": "uint48"
            },
            {
              "internalType": "uint48",
              "name": "totalRedeemed",
              "type": "uint48"
            },
            {
              "internalType": "address",
              "name": "token",
              "type": "address"
            },
            {
              "internalType": "uint256",
              "name": "amount",
              "type": "uint256"
            }
          ],
          "internalType": "struct Rouge.Channel[]",
          "name": "channels",
          "type": "tuple[]"
        },
        {
          "internalType": "uint256[]",
          "name": "balances",
          "type": "uint256[]"
        }
      ],
      "stateMutability": "view",
      "type": "function"
    },
    {
      "inputs": [
        {
          "internalType": "bytes4[]",
          "name": "selectors",
          "type": "bytes4[]"
        },
        {
          "internalType": "address",
          "name": "account",
          "type": "address"
        }
      ],
      "name": "getRoles",
      "outputs": [
        {
          "internalType": "bool[][]",
          "name": "roles",
          "type": "bool[][]"
        }
      ],
      "stateMutability": "view",
      "type": "function"
    },
    {
      "inputs": [
        {
          "internalType": "uint48",
          "name": "tokenId",
          "type": "uint48"
        }
      ],
      "name": "getTokenInfos",
      "outputs": [
        {
          "internalType": "address",
          "name": "owner",
          "type": "address"
        },
        {
          "internalType": "uint16",
          "name": "channelId",
          "type": "uint16"
        },
        {
          "internalType": "bytes16",
          "name": "stamp",
          "type": "bytes16"
        },
        {
          "internalType": "bool",
          "name": "redeemed",
          "type": "bool"
        },
        {
          "internalType": "uint256",
          "name": "nextTokenId",
          "type": "uint256"
        }
      ],
      "stateMutability": "view",
      "type": "function"
    },
    {
      "inputs": [
        {
          "internalType": "address",
          "name": "account",
          "type": "address"
        },
        {
          "internalType": "bytes4",
          "name": "selector",
          "type": "bytes4"
        },
        {
          "internalType": "uint16",
          "name": "channelId",
          "type": "uint16"
        }
      ],
      "name": "hasRole",
      "outputs": [
        {
          "internalType": "bool",
          "name": "",
          "type": "bool"
        }
      ],
      "stateMutability": "view",
      "type": "function"
    },
    {
      "inputs": [
        {
          "internalType": "address",
          "name": "owner",
          "type": "address"
        },
        {
          "internalType": "address",
          "name": "operator",
          "type": "address"
        }
      ],
      "name": "isApprovedForAll",
      "outputs": [
        {
          "internalType": "bool",
          "name": "",
          "type": "bool"
        }
      ],
      "stateMutability": "view",
      "type": "function"
    },
    {
      "inputs": [
        {
          "internalType": "bytes4",
          "name": "selector",
          "type": "bytes4"
        },
        {
          "internalType": "uint16",
          "name": "channelId",
          "type": "uint16"
        }
      ],
      "name": "isEnabled",
      "outputs": [
        {
          "internalType": "bool",
          "name": "",
          "type": "bool"
        }
      ],
      "stateMutability": "view",
      "type": "function"
    },
    {
      "inputs": [
        {
          "components": [
            {
              "internalType": "address",
              "name": "from",
              "type": "address"
            },
            {
              "internalType": "uint48",
              "name": "tokenId",
              "type": "uint48"
            },
            {
              "components": [
                {
                  "internalType": "bytes4",
                  "name": "selector",
                  "type": "bytes4"
                },
                {
                  "internalType": "uint32",
                  "name": "expire",
                  "type": "uint32"
                }
              ],
              "internalType": "struct UseCertificate.Memorandum",
              "name": "memorandum",
              "type": "tuple"
            },
            {
              "internalType": "bytes32",
              "name": "sigR",
              "type": "bytes32"
            },
            {
              "internalType": "bytes32",
              "name": "sigS",
              "type": "bytes32"
            },
            {
              "internalType": "uint8",
              "name": "sigV",
              "type": "uint8"
            }
          ],
          "internalType": "struct UseCertificate.SignedCertificate",
          "name": "signed",
          "type": "tuple"
        }
      ],
      "name": "isValid",
      "outputs": [
        {
          "internalType": "bool",
          "name": "",
          "type": "bool"
        }
      ],
      "stateMutability": "view",
      "type": "function"
    },
    {
      "inputs": [
        {
          "components": [
            {
              "internalType": "address",
              "name": "from",
              "type": "address"
            },
            {
              "internalType": "uint48",
              "name": "tokenId",
              "type": "uint48"
            },
            {
              "components": [
                {
                  "internalType": "bytes4",
                  "name": "selector",
                  "type": "bytes4"
                },
                {
                  "internalType": "uint32",
                  "name": "expire",
                  "type": "uint32"
                }
              ],
              "internalType": "struct UseCertificate.Memorandum",
              "name": "memorandum",
              "type": "tuple"
            },
            {
              "internalType": "bytes32",
              "name": "sigR",
              "type": "bytes32"
            },
            {
              "internalType": "bytes32",
              "name": "sigS",
              "type": "bytes32"
            },
            {
              "internalType": "uint8",
              "name": "sigV",
              "type": "uint8"
            }
          ],
          "internalType": "struct UseCertificate.SignedCertificate",
          "name": "signed",
          "type": "tuple"
        }
      ],
      "name": "isValidSignature",
      "outputs": [
        {
          "internalType": "bool",
          "name": "",
          "type": "bool"
        }
      ],
      "stateMutability": "view",
      "type": "function"
    },
    {
      "inputs": [],
      "name": "name",
      "outputs": [
        {
          "internalType": "string",
          "name": "",
          "type": "string"
        }
      ],
      "stateMutability": "view",
      "type": "function"
    },
    {
      "inputs": [
        {
          "internalType": "uint256",
          "name": "tokenId",
          "type": "uint256"
        }
      ],
      "name": "ownerOf",
      "outputs": [
        {
          "internalType": "address",
          "name": "",
          "type": "address"
        }
      ],
      "stateMutability": "view",
      "type": "function"
    },
    {
      "inputs": [
        {
          "components": [
            {
              "internalType": "uint16",
              "name": "tokenId",
              "type": "uint16"
            },
            {
              "internalType": "bytes32",
              "name": "proof",
              "type": "bytes32"
            },
            {
              "components": [
                {
                  "internalType": "address",
                  "name": "from",
                  "type": "address"
                },
                {
                  "internalType": "uint48",
                  "name": "tokenId",
                  "type": "uint48"
                },
                {
                  "components": [
                    {
                      "internalType": "bytes4",
                      "name": "selector",
                      "type": "bytes4"
                    },
                    {
                      "internalType": "uint32",
                      "name": "expire",
                      "type": "uint32"
                    }
                  ],
                  "internalType": "struct UseCertificate.Memorandum",
                  "name": "memorandum",
                  "type": "tuple"
                },
                {
                  "internalType": "bytes32",
                  "name": "sigR",
                  "type": "bytes32"
                },
                {
                  "internalType": "bytes32",
                  "name": "sigS",
                  "type": "bytes32"
                },
                {
                  "internalType": "uint8",
                  "name": "sigV",
                  "type": "uint8"
                }
              ],
              "internalType": "struct UseCertificate.SignedCertificate",
              "name": "certificate",
              "type": "tuple"
            }
          ],
          "internalType": "struct Rouge.Redemption[]",
          "name": "redemptions",
          "type": "tuple[]"
        }
      ],
      "name": "redeem",
      "outputs": [],
      "stateMutability": "nonpayable",
      "type": "function"
    },
    {
      "inputs": [
        {
          "internalType": "address",
          "name": "from",
          "type": "address"
        },
        {
          "internalType": "address",
          "name": "to",
          "type": "address"
        },
        {
          "internalType": "uint256",
          "name": "tokenId",
          "type": "uint256"
        }
      ],
      "name": "safeTransferFrom",
      "outputs": [],
      "stateMutability": "nonpayable",
      "type": "function"
    },
    {
      "inputs": [
        {
          "internalType": "address",
          "name": "from",
          "type": "address"
        },
        {
          "internalType": "address",
          "name": "to",
          "type": "address"
        },
        {
          "internalType": "uint256",
          "name": "tokenId",
          "type": "uint256"
        },
        {
          "internalType": "bytes",
          "name": "data",
          "type": "bytes"
        }
      ],
      "name": "safeTransferFrom",
      "outputs": [],
      "stateMutability": "nonpayable",
      "type": "function"
    },
    {
      "inputs": [
        {
          "internalType": "address",
          "name": "operator",
          "type": "address"
        },
        {
          "internalType": "bool",
          "name": "approved",
          "type": "bool"
        }
      ],
      "name": "setApprovalForAll",
      "outputs": [],
      "stateMutability": "nonpayable",
      "type": "function"
    },
    {
      "inputs": [
        {
          "internalType": "address",
          "name": "manager",
          "type": "address"
        },
        {
          "internalType": "string",
          "name": "URI_",
          "type": "string"
        },
        {
          "components": [
            {
              "internalType": "uint48",
              "name": "supply",
              "type": "uint48"
            },
            {
              "internalType": "uint48",
              "name": "totalAcquired",
              "type": "uint48"
            },
            {
              "internalType": "uint48",
              "name": "totalRedeemed",
              "type": "uint48"
            },
            {
              "internalType": "address",
              "name": "token",
              "type": "address"
            },
            {
              "internalType": "uint256",
              "name": "amount",
              "type": "uint256"
            }
          ],
          "internalType": "struct Rouge.Channel[]",
          "name": "channel",
          "type": "tuple[]"
        },
        {
          "components": [
            {
              "internalType": "address",
              "name": "account",
              "type": "address"
            },
            {
              "internalType": "bytes4",
              "name": "selector",
              "type": "bytes4"
            },
            {
              "internalType": "uint16[]",
              "name": "channels",
              "type": "uint16[]"
            },
            {
              "internalType": "bool",
              "name": "grant",
              "type": "bool"
            }
          ],
          "internalType": "struct Rouge.Authorization[]",
          "name": "auth",
          "type": "tuple[]"
        }
      ],
      "name": "setup",
      "outputs": [],
      "stateMutability": "nonpayable",
      "type": "function"
    },
    {
      "inputs": [
        {
          "internalType": "bytes4",
          "name": "interfaceId",
          "type": "bytes4"
        }
      ],
      "name": "supportsInterface",
      "outputs": [
        {
          "internalType": "bool",
          "name": "",
          "type": "bool"
        }
      ],
      "stateMutability": "view",
      "type": "function"
    },
    {
      "inputs": [],
      "name": "symbol",
      "outputs": [
        {
          "internalType": "string",
          "name": "",
          "type": "string"
        }
      ],
      "stateMutability": "view",
      "type": "function"
    },
    {
      "inputs": [
        {
          "internalType": "uint256",
          "name": "tokenId",
          "type": "uint256"
        }
      ],
      "name": "tokenURI",
      "outputs": [
        {
          "internalType": "string",
          "name": "",
          "type": "string"
        }
      ],
      "stateMutability": "view",
      "type": "function"
    },
    {
      "inputs": [
        {
          "internalType": "address",
          "name": "from",
          "type": "address"
        },
        {
          "internalType": "address",
          "name": "to",
          "type": "address"
        },
        {
          "internalType": "uint256",
          "name": "tokenId",
          "type": "uint256"
        }
      ],
      "name": "transferFrom",
      "outputs": [],
      "stateMutability": "nonpayable",
      "type": "function"
    },
    {
      "inputs": [
        {
          "components": [
            {
              "internalType": "address",
              "name": "account",
              "type": "address"
            },
            {
              "internalType": "bytes4",
              "name": "selector",
              "type": "bytes4"
            },
            {
              "internalType": "uint16[]",
              "name": "channels",
              "type": "uint16[]"
            },
            {
              "internalType": "bool",
              "name": "grant",
              "type": "bool"
            }
          ],
          "internalType": "struct Rouge.Authorization[]",
          "name": "auth",
          "type": "tuple[]"
        }
      ],
      "name": "updateAuthorizations",
      "outputs": [],
      "stateMutability": "nonpayable",
      "type": "function"
    },
    {
      "inputs": [
        {
          "internalType": "bytes16",
          "name": "stamp",
          "type": "bytes16"
        },
        {
          "internalType": "bytes32",
          "name": "proof",
          "type": "bytes32"
        }
      ],
      "name": "validProof",
      "outputs": [
        {
          "internalType": "bool",
          "name": "valid",
          "type": "bool"
        }
      ],
      "stateMutability": "pure",
      "type": "function"
    },
    {
      "inputs": [
        {
          "internalType": "uint16",
          "name": "tokenId",
          "type": "uint16"
        },
        {
          "internalType": "bytes32",
          "name": "proof",
          "type": "bytes32"
        }
      ],
      "name": "validTokenProof",
      "outputs": [
        {
          "internalType": "bool",
          "name": "",
          "type": "bool"
        }
      ],
      "stateMutability": "view",
      "type": "function"
    },
    {
      "inputs": [
        {
          "internalType": "address payable",
          "name": "to",
          "type": "address"
        },
        {
          "internalType": "uint256",
          "name": "amount",
          "type": "uint256"
        }
      ],
      "name": "widthdraw",
      "outputs": [],
      "stateMutability": "nonpayable",
      "type": "function"
    },
    {
      "inputs": [
        {
          "internalType": "address",
          "name": "token",
          "type": "address"
        },
        {
          "internalType": "address",
          "name": "to",
          "type": "address"
        },
        {
          "internalType": "uint256",
          "name": "amount",
          "type": "uint256"
        }
      ],
      "name": "widthdrawToken",
      "outputs": [],
      "stateMutability": "nonpayable",
      "type": "function"
    }
  ],
  "transactionHash": "0x7b19d6ab75bd8ff9e26403cbbc0574ad660413f68934cae413225425a0a7f600",
  "args": [],
  "numDeployments": 1,
  "solcInputHash": "2ab0cf9a1a22185c6b23e0cf37683b53",
  "bytecode": "0x60806040526007805460ff60301b191690553480156200001e57600080fd5b5060405180604001604052806009815260200168149bdd59d94813919560ba1b815250604051806040016040528060038152602001622923a760e91b81525081600190816200006e919062000141565b5060026200007d828262000141565b50506007805460ff60301b19166601000000000000179055506200020d565b634e487b7160e01b600052604160045260246000fd5b600181811c90821680620000c757607f821691505b602082108103620000e857634e487b7160e01b600052602260045260246000fd5b50919050565b601f8211156200013c57600081815260208120601f850160051c81016020861015620001175750805b601f850160051c820191505b81811015620001385782815560010162000123565b5050505b505050565b81516001600160401b038111156200015d576200015d6200009c565b62000175816200016e8454620000b2565b84620000ee565b602080601f831160018114620001ad5760008415620001945750858301515b600019600386901b1c1916600185901b17855562000138565b600085815260208120601f198616915b82811015620001de57888601518255948401946001909101908401620001bd565b5085821015620001fd5787850151600019600388901b60f8161c191681555b5050505050600190811b01905550565b615026806200021d6000396000f3fe60806040526004361061024f5760003560e01c806370850b1611610138578063c87b56dd116100b0578063e985e9c51161007f578063f0a5e40311610064578063f0a5e40314610703578063f6375c9014610723578063ffa1ad741461074357600080fd5b8063e985e9c51461069a578063eedff2c0146106e357600080fd5b8063c87b56dd1461061a578063da3e33971461063a578063dd901cae1461065a578063df0a31371461067a57600080fd5b806395d89b4111610107578063a22cb465116100ec578063a22cb465146105ba578063b88d4fde146105da578063c74b197c146105fa57600080fd5b806395d89b4114610585578063a126c3451461059a57600080fd5b806370850b161461051c57806370a08231146105325780637adbbfc3146105525780637d394b5b1461057257600080fd5b806329e41da5116101cb5780634d0a62371161019a5780635c3731371161017f5780635c373137146104b85780636352211e146104d8578063643d6dc0146104f857600080fd5b80634d0a62371461046f5780635634f2061461048f57600080fd5b806329e41da5146103a75780633408e470146103cf5780633e1a5c1d146103e257806342842e0e1461044f57600080fd5b8063095ea7b3116102225780631354b03d116102075780631354b03d1461034757806323b872dd1461036757806323ec2bbe1461038757600080fd5b8063095ea7b3146103105780631141d7de1461033257600080fd5b806301ffc9a71461025457806306fdde0314610289578063081812fc146102ab57806308234fae146102e3575b600080fd5b34801561026057600080fd5b5061027461026f366004613e1f565b61078c565b60405190151581526020015b60405180910390f35b34801561029557600080fd5b5061029e610829565b6040516102809190613e8c565b3480156102b757600080fd5b506102cb6102c6366004613e9f565b6108bb565b6040516001600160a01b039091168152602001610280565b3480156102ef57600080fd5b506103036102fe366004613ffd565b6108e2565b60405161028091906140ae565b34801561031c57600080fd5b5061033061032b36600461413a565b610ba6565b005b34801561033e57600080fd5b5061029e610cdc565b34801561035357600080fd5b5061027461036236600461423f565b610d6a565b34801561037357600080fd5b5061033061038236600461425b565b610dac565b34801561039357600080fd5b506102746103a23660046142ae565b610e33565b3480156103b357600080fd5b506103c165ffffffffffff81565b604051908152602001610280565b3480156103db57600080fd5b50466103c1565b3480156103ee57600080fd5b506104026103fd3660046142f5565b610ea7565b604080516001600160a01b03909616865261ffff90941660208601526fffffffffffffffffffffffffffffffff19909216928401929092529015156060830152608082015260a001610280565b34801561045b57600080fd5b5061033061046a36600461425b565b610f14565b34801561047b57600080fd5b5061033061048a36600461425b565b610f2f565b34801561049b57600080fd5b506104a560001981565b60405161ffff9091168152602001610280565b3480156104c457600080fd5b506103306104d33660046143d6565b61105e565b3480156104e457600080fd5b506102cb6104f3366004613e9f565b6113c3565b34801561050457600080fd5b5061050d611428565b60405161028093929190614446565b34801561052857600080fd5b506103c161ffff81565b34801561053e57600080fd5b506103c161054d3660046144f1565b61174f565b34801561055e57600080fd5b5061027461056d36600461423f565b6117e9565b61033061058036600461452f565b6118b1565b34801561059157600080fd5b5061029e611f64565b3480156105a657600080fd5b506102746105b536600461469c565b611f73565b3480156105c657600080fd5b506103306105d53660046146d1565b611fc2565b3480156105e657600080fd5b506103306105f536600461470a565b611fcd565b34801561060657600080fd5b5061033061061536600461413a565b612055565b34801561062657600080fd5b5061029e610635366004613e9f565b612104565b34801561064657600080fd5b5061033061065536600461425b565b612223565b34801561066657600080fd5b50610330610675366004614924565b61230d565b34801561068657600080fd5b506103306106953660046149f3565b6125f4565b3480156106a657600080fd5b506102746106b5366004614a28565b6001600160a01b03918216600090815260066020908152604080832093909416825291909152205460ff1690565b3480156106ef57600080fd5b506102746106fe366004614a56565b6129e2565b34801561070f57600080fd5b5061027461071e366004614a8b565b6129f0565b34801561072f57600080fd5b5061033061073e366004614aa7565b612a17565b34801561074f57600080fd5b5061029e6040518060400160405280600581526020017f322e302e3000000000000000000000000000000000000000000000000000000081525081565b60006001600160e01b031982167f80ac58cd0000000000000000000000000000000000000000000000000000000014806107ef57506001600160e01b031982167f5b5e139f00000000000000000000000000000000000000000000000000000000145b8061082357507f01ffc9a7000000000000000000000000000000000000000000000000000000006001600160e01b03198316145b92915050565b60606001805461083890614b75565b80601f016020809104026020016040519081016040528092919081815260200182805461086490614b75565b80156108b15780601f10610886576101008083540402835291602001916108b1565b820191906000526020600020905b81548152906001019060200180831161089457829003601f168201915b5050505050905090565b60006108c682612de9565b506000908152600560205260409020546001600160a01b031690565b600a546060906000906108f6906001614bc5565b67ffffffffffffffff81111561090e5761090e613eb8565b60405190808252806020026020018201604052801561094157816020015b606081526020019060019003908161092c5790505b50905060005b600a5461ffff82161015610a84576000855167ffffffffffffffff81111561097157610971613eb8565b60405190808252806020026020018201604052801561099a578160200160208202803683370190505b50905060005b86518161ffff161015610a4d5760096000888361ffff16815181106109c7576109c7614bd8565b6020908102919091018101516001600160e01b0319168252818101929092526040908101600090812061ffff80881683529084528282206001600160a01b038b1683529093522054835160ff909116918491908416908110610a2b57610a2b614bd8565b9115156020928302919091019091015280610a4581614bee565b9150506109a0565b5080838361ffff1681518110610a6557610a65614bd8565b6020026020010181905250508080610a7c90614bee565b915050610947565b506000845167ffffffffffffffff811115610aa157610aa1613eb8565b604051908082528060200260200182016040528015610aca578160200160208202803683370190505b50905060005b85518161ffff161015610b7b5760096000878361ffff1681518110610af757610af7614bd8565b6020908102919091018101516001600160e01b0319168252818101929092526040908101600090812061ffff8083529084528282206001600160a01b038a1683529093522054835160ff909116918491908416908110610b5957610b59614bd8565b9115156020928302919091019091015280610b7381614bee565b915050610ad0565b50600a548251829184918110610b9357610b93614bd8565b6020908102919091010152509392505050565b6000610bb1826113c3565b9050806001600160a01b0316836001600160a01b031603610c3f5760405162461bcd60e51b815260206004820152602160248201527f4552433732313a20617070726f76616c20746f2063757272656e74206f776e6560448201527f720000000000000000000000000000000000000000000000000000000000000060648201526084015b60405180910390fd5b336001600160a01b0382161480610c5b5750610c5b81336106b5565b610ccd5760405162461bcd60e51b815260206004820152603d60248201527f4552433732313a20617070726f76652063616c6c6572206973206e6f7420746f60448201527f6b656e206f776e6572206f7220617070726f76656420666f7220616c6c0000006064820152608401610c36565b610cd78383612e50565b505050565b60088054610ce990614b75565b80601f0160208091040260200160405190810160405280929190818152602001828054610d1590614b75565b8015610d625780601f10610d3757610100808354040283529160200191610d62565b820191906000526020600020905b815481529060010190602001808311610d4557829003601f168201915b505050505081565b60008082604001516020015163ffffffff16118015610d96575081604001516020015163ffffffff1642115b15610da357506000919050565b610823826117e9565b610db63382612ed6565b610e285760405162461bcd60e51b815260206004820152602d60248201527f4552433732313a2063616c6c6572206973206e6f7420746f6b656e206f776e6560448201527f72206f7220617070726f766564000000000000000000000000000000000000006064820152608401610c36565b610cd7838383612f55565b6001600160e01b03198216600090815260096020908152604080832061ffff8516845282528083206001600160a01b038716845290915281205460ff1615610e7d57506001610ea0565b61ffff82811614610e9c57610e958484600019610e33565b9050610ea0565b5060005b9392505050565b6000806000806000610ec08665ffffffffffff166113c3565b65ffffffffffff9687166000908152600b6020526040902054600754919861ffff82169862010000830460801b9850720100000000000000000000000000000000000090920460ff16965091169350915050565b610cd783838360405180602001604052806000815250611fcd565b610f5b7f4d0a6237000000000000000000000000000000000000000000000000000000006000196129e2565b610f955760405162461bcd60e51b815260206004820152600b60248201526a1b9bdd08195b98589b195960aa1b6044820152606401610c36565b610fc2337f4d0a623700000000000000000000000000000000000000000000000000000000600019610e33565b610fcb57600080fd5b6040517fa9059cbb0000000000000000000000000000000000000000000000000000000081526001600160a01b0383811660048301526024820183905284169063a9059cbb906044015b6020604051808303816000875af1158015611034573d6000803e3d6000fd5b505050506040513d601f19601f820116820180604052508101906110589190614c0f565b50505050565b600081511161106c57600080fd5b8051600a5461ffff9161107e91614bc5565b1061108857600080fd5b60005b81518161ffff1610156113bf576110c47f5c373137000000000000000000000000000000000000000000000000000000006000196129e2565b6110fe5760405162461bcd60e51b815260206004820152600b60248201526a1b9bdd08195b98589b195960aa1b6044820152606401610c36565b6007546601000000000000900460ff1615806111425750611142337f5c37313700000000000000000000000000000000000000000000000000000000600019610e33565b61118e5760405162461bcd60e51b815260206004820152600e60248201527f6e6f7420617574686f72697a65640000000000000000000000000000000000006044820152606401610c36565b6000828261ffff16815181106111a6576111a6614bd8565b60200260200101516020019065ffffffffffff16908165ffffffffffff16815250506000828261ffff16815181106111e0576111e0614bd8565b60200260200101516040019065ffffffffffff16908165ffffffffffff1681525050600a828261ffff168151811061121a5761121a614bd8565b6020908102919091018101518254600181810185556000948552938390208251600390920201805493830151604084015165ffffffffffff9081166c01000000000000000000000000027fffffffffffffffffffffffffffff000000000000ffffffffffffffffffffffff9282166601000000000000027fffffffffffffffffffffffffffffffffffffffff00000000000000000000000090971691909416179490941793909316178255606081015182840180546001600160a01b039092167fffffffffffffffffffffffff000000000000000000000000000000000000000090921691909117905560800151600290910155600a5461131b9190614c2c565b61ffff167ffa42d262bbbc748bfc160b186cef43f4f880f4e43d0d58c62d572bab459512b5838361ffff168151811061135657611356614bd8565b602002602001015160000151848461ffff168151811061137857611378614bd8565b6020026020010151608001516040516113a592919065ffffffffffff929092168252602082015260400190565b60405180910390a2806113b781614bee565b91505061108b565b5050565b6000818152600360205260408120546001600160a01b0316806108235760405162461bcd60e51b815260206004820152601860248201527f4552433732313a20696e76616c696420746f6b656e20494400000000000000006044820152606401610c36565b60608060606008805461143a90614b75565b80601f016020809104026020016040519081016040528092919081815260200182805461146690614b75565b80156114b35780601f10611488576101008083540402835291602001916114b3565b820191906000526020600020905b81548152906001019060200180831161149657829003601f168201915b50505050509250600a805480602002602001604051908101604052809291908181526020016000905b828210156115635760008481526020908190206040805160a08101825260038602909201805465ffffffffffff8082168552660100000000000082048116858701526c0100000000000000000000000090910416918301919091526001808201546001600160a01b03166060840152600290910154608083015290835290920191016114dc565b5050505091506000600a8054905067ffffffffffffffff81111561158957611589613eb8565b6040519080825280602002602001820160405280156115b2578160200160208202803683370190505b50905060005b600a5461ffff82161015611745576000600a8261ffff16815481106115df576115df614bd8565b90600052602060002090600302016002015411156117335760006001600160a01b0316600a8261ffff168154811061161957611619614bd8565b60009182526020909120600160039092020101546001600160a01b0316036116635747828261ffff168151811061165257611652614bd8565b602002602001018181525050611733565b600a8161ffff168154811061167a5761167a614bd8565b60009182526020909120600390910201600101546040517f70a082310000000000000000000000000000000000000000000000000000000081523060048201526001600160a01b03909116906370a0823190602401602060405180830381865afa1580156116ec573d6000803e3d6000fd5b505050506040513d601f19601f820116820180604052508101906117109190614c3f565b828261ffff168151811061172657611726614bd8565b6020026020010181815250505b8061173d81614bee565b9150506115b8565b5080915050909192565b60006001600160a01b0382166117cd5760405162461bcd60e51b815260206004820152602960248201527f4552433732313a2061646472657373207a65726f206973206e6f74206120766160448201527f6c6964206f776e657200000000000000000000000000000000000000000000006064820152608401610c36565b506001600160a01b031660009081526004602052604090205490565b600081600001516001600160a01b0316600161183b604051806060016040528086600001516001600160a01b03168152602001866020015165ffffffffffff16815260200186604001518152506131a3565b60a0808601516060808801516080808a01516040805160008152602081018083529890985260ff9095169487019490945291850152830152016020604051602081039080840390855afa158015611896573d6000803e3d6000fd5b505050602060405103516001600160a01b0316149050919050565b60013460005b83518161ffff16101561105857838161ffff16815181106118da576118da614bd8565b60200260200101516000015161ffff16600a80549050116118fa57600080fd5b61192c637d394b5b60e01b858361ffff168151811061191b5761191b614bd8565b6020026020010151600001516129e2565b6119665760405162461bcd60e51b815260206004820152600b60248201526a1b9bdd08195b98589b195960aa1b6044820152606401610c36565b838161ffff168151811061197c5761197c614bd8565b60200260200101516020015161ffff16600a858361ffff16815181106119a4576119a4614bd8565b60200260200101516000015161ffff16815481106119c4576119c4614bd8565b60009182526020909120600390910201546119f191906601000000000000900465ffffffffffff16614c58565b65ffffffffffff16600a858361ffff1681518110611a1157611a11614bd8565b60200260200101516000015161ffff1681548110611a3157611a31614bd8565b600091825260209091206003909102015465ffffffffffff161015611a985760405162461bcd60e51b815260206004820152601060248201527f737570706c7920657868617573746564000000000000000000000000000000006044820152606401610c36565b60005b848261ffff1681518110611ab157611ab1614bd8565b60200260200101516020015161ffff168161ffff161015611bb45760008161ffff16868461ffff1681518110611ae957611ae9614bd8565b6020026020010151606001515111611b02576000611b42565b858361ffff1681518110611b1857611b18614bd8565b6020026020010151606001518261ffff1681518110611b3957611b39614bd8565b60200260200101515b9050611b9333878561ffff1681518110611b5e57611b5e614bd8565b60200260200101516000015183898761ffff1681518110611b8157611b81614bd8565b602002602001015160400151896132ab565b84611b9d81614c7e565b955050508080611bac90614bee565b915050611a9b565b506000600a858361ffff1681518110611bcf57611bcf614bd8565b60200260200101516000015161ffff1681548110611bef57611bef614bd8565b9060005260206000209060030201600201541115611e9f5760006001600160a01b0316600a858361ffff1681518110611c2a57611c2a614bd8565b60200260200101516000015161ffff1681548110611c4a57611c4a614bd8565b60009182526020909120600160039092020101546001600160a01b031603611dc057838161ffff1681518110611c8257611c82614bd8565b60200260200101516020015161ffff16600a858361ffff1681518110611caa57611caa614bd8565b60200260200101516000015161ffff1681548110611cca57611cca614bd8565b906000526020600020906003020160020154611ce69190614c96565b821015611d355760405162461bcd60e51b815260206004820152601160248201527f6e6f20656e6f7567682066756e64696e670000000000000000000000000000006044820152606401610c36565b838161ffff1681518110611d4b57611d4b614bd8565b60200260200101516020015161ffff16600a858361ffff1681518110611d7357611d73614bd8565b60200260200101516000015161ffff1681548110611d9357611d93614bd8565b906000526020600020906003020160020154611daf9190614c96565b611db99083614c2c565b9150611e9f565b611e9f600a858361ffff1681518110611ddb57611ddb614bd8565b60200260200101516000015161ffff1681548110611dfb57611dfb614bd8565b906000526020600020906003020160010160009054906101000a90046001600160a01b0316858361ffff1681518110611e3657611e36614bd8565b60200260200101516020015161ffff16600a878561ffff1681518110611e5e57611e5e614bd8565b60200260200101516000015161ffff1681548110611e7e57611e7e614bd8565b906000526020600020906003020160020154611e9a9190614c96565b61347b565b838161ffff1681518110611eb557611eb5614bd8565b60200260200101516020015161ffff16600a858361ffff1681518110611edd57611edd614bd8565b60200260200101516000015161ffff1681548110611efd57611efd614bd8565b600091825260209091206003909102018054600690611f2f9084906601000000000000900465ffffffffffff16614c58565b92506101000a81548165ffffffffffff021916908365ffffffffffff1602179055508080611f5c90614bee565b9150506118b7565b60606002805461083890614b75565b600060808083604051602001611f8b91815260200190565b60405160208183030381529060405280519060200120901c901b836fffffffffffffffffffffffffffffffff191614905092915050565b6113bf33838361350b565b611fd73383612ed6565b6120495760405162461bcd60e51b815260206004820152602d60248201527f4552433732313a2063616c6c6572206973206e6f7420746f6b656e206f776e6560448201527f72206f7220617070726f766564000000000000000000000000000000000000006064820152608401610c36565b611058848484846135d9565b6120817fc74b197c000000000000000000000000000000000000000000000000000000006000196129e2565b6120bb5760405162461bcd60e51b815260206004820152600b60248201526a1b9bdd08195b98589b195960aa1b6044820152606401610c36565b6120e8337fc74b197c00000000000000000000000000000000000000000000000000000000600019610e33565b6120f157600080fd5b6113bf6001600160a01b03831682613662565b6000818152600360205260409020546060906001600160a01b03166121915760405162461bcd60e51b815260206004820152602f60248201527f4552433732314d657461646174613a2055524920717565727920666f72206e6f60448201527f6e6578697374656e7420746f6b656e00000000000000000000000000000000006064820152608401610c36565b6008805461219e90614b75565b80601f01602080910402602001604051908101604052809291908181526020018280546121ca90614b75565b80156122175780601f106121ec57610100808354040283529160200191612217565b820191906000526020600020905b8154815290600101906020018083116121fa57829003601f168201915b50505050509050919050565b61224f7fda3e3397000000000000000000000000000000000000000000000000000000006000196129e2565b6122895760405162461bcd60e51b815260206004820152600b60248201526a1b9bdd08195b98589b195960aa1b6044820152606401610c36565b6122b6337fda3e339700000000000000000000000000000000000000000000000000000000600019610e33565b6122bf57600080fd5b6040517f095ea7b30000000000000000000000000000000000000000000000000000000081526001600160a01b0383811660048301526024820183905284169063095ea7b390604401611015565b6007546601000000000000900460ff161561232757600080fd5b6008612334848683614cfb565b50600780547fffffffffffffffffffffffffffffffffffffffffffffffffffff0000000000001660019081179091557f414f8037067d2d362b6e315be958c3b66d4e15bc02396827cec828876a543dd7805460ff1990811683179091557f72e5e5fffb1230bba3b5daddb0f58dccb1e1e60094c35a810282923478fe5a7d80548216831790557f06ffa7a29af4149a996aba7c1f2fa81de126513b3be65c861a4273cf0ed74f7a80548216831790557f88a38c94af4c92398d74410328c708d269d210568bccae6aa1d95cb2e6959aa180548216831790557f6cdbc52fa24effb8260917c28f956721adcff62a24990e868095bebf598087b880548216831790556001600160a01b03871660009081527f46eb72e44f8f425875f712ca3aa3222fd2659d7dd42f7c7295e5bc5186322b566020908152604080832080548516861790557fbfa1bbbb5412113857af50c788373bf697cab5b3e2de62691bbbfb42386bdf05825280832080548516861790557fc8b052e36352a20baa4e95ab194848256c7ef7d3bed1a938d3c8d94d4ab7f6cf825280832080548516861790557f90f718e4535fae59c16f7ef099360b460c8ffa52fa88963d7bc24f6308c941d3825280832080548516861790557f81d7bfe99e92d9cccc0c0b213fd1c1d063f749e2219cbacb4facac560401f6b8825280832080548516861790557fb5fb1ec644359d1df101885146ee5bd32e011f3def46ee7180b0f24d1a697a9f90915290208054909116909117905581511561256f5761256f8261105e565b80511561257f5761257f816125f4565b600780547fffffffffffffffffffffffffffffffffffffffffffffffffff00ffffffffffff1666010000000000001790556040517fb3712f2d2703aa26e6c5852e6b6390a146f0fea24af46d60565cb1c1c66c6eb5906125e59033908890600890614dbc565b60405180910390a15050505050565b60005b81518110156113bf57600082828151811061261457612614614bd8565b6020026020010151604001515111156129d05760005b82828151811061263c5761263c614bd8565b602002602001015160400151518161ffff1610156129ce5761269f63df0a313760e01b84848151811061267157612671614bd8565b6020026020010151604001518361ffff168151811061269257612692614bd8565b60200260200101516129e2565b6126d95760405162461bcd60e51b815260206004820152600b60248201526a1b9bdd08195b98589b195960aa1b6044820152606401610c36565b6007546601000000000000900460ff16158061273c575061273c3363df0a313760e01b85858151811061270e5761270e614bd8565b6020026020010151604001518461ffff168151811061272f5761272f614bd8565b6020026020010151610e33565b6127885760405162461bcd60e51b815260206004820152600e60248201527f6e6f7420617574686f72697a65640000000000000000000000000000000000006044820152606401610c36565b82828151811061279a5761279a614bd8565b602002602001015160600151600960008585815181106127bc576127bc614bd8565b6020026020010151602001517bffffffffffffffffffffffffffffffffffffffffffffffffffffffff19167bffffffffffffffffffffffffffffffffffffffffffffffffffffffff19168152602001908152602001600020600001600085858151811061282b5761282b614bd8565b6020026020010151604001518461ffff168151811061284c5761284c614bd8565b602002602001015161ffff1661ffff168152602001908152602001600020600085858151811061287e5761287e614bd8565b6020026020010151600001516001600160a01b03166001600160a01b0316815260200190815260200160002060006101000a81548160ff0219169083151502179055508282815181106128d3576128d3614bd8565b6020026020010151604001518161ffff16815181106128f4576128f4614bd8565b602002602001015161ffff1683838151811061291257612912614bd8565b6020026020010151602001517bffffffffffffffffffffffffffffffffffffffffffffffffffffffff191684848151811061294f5761294f614bd8565b6020026020010151600001516001600160a01b03167f0baadb9c28bd04f0a6d1ab4d058e4e838ccd683c90c3dd7eceb644c1eef9f21e86868151811061299757612997614bd8565b6020026020010151606001516040516129b4911515815260200190565b60405180910390a4806129c681614bee565b91505061262a565b505b806129da81614e64565b9150506125f7565b6000610ea060008484610e33565b61ffff82166000908152600b6020526040812054610ea09062010000900460801b83611f73565b60005b81518161ffff1610156113bf57600754825165ffffffffffff90911690839061ffff8416908110612a4d57612a4d614bd8565b60200260200101516000015161ffff1610612a6757600080fd5b612ab563f6375c9060e01b600b6000858561ffff1681518110612a8c57612a8c614bd8565b6020908102919091018101515161ffff90811683529082019290925260400160002054166129e2565b612aef5760405162461bcd60e51b815260206004820152600b60248201526a1b9bdd08195b98589b195960aa1b6044820152606401610c36565b600b6000838361ffff1681518110612b0957612b09614bd8565b6020908102919091018101515161ffff168252810191909152604001600020547201000000000000000000000000000000000000900460ff1615612b4c57600080fd5b612b7a828261ffff1681518110612b6557612b65614bd8565b602002602001015163f6375c9060e01b61377b565b612bc65760405162461bcd60e51b815260206004820152601860248201527f6e6f7420617574686f72697a65642062792069737375657200000000000000006044820152606401610c36565b612bf4828261ffff1681518110612bdf57612bdf614bd8565b602002602001015163f6375c9060e01b613841565b612c405760405162461bcd60e51b815260206004820152601860248201527f6e6f7420617574686f72697a65642062792062656172657200000000000000006044820152606401610c36565b6001600b6000848461ffff1681518110612c5c57612c5c614bd8565b60200260200101516000015161ffff1665ffffffffffff16815260200190815260200160002060000160126101000a81548160ff021916908315150217905550600a600b6000848461ffff1681518110612cb857612cb8614bd8565b6020908102919091018101515161ffff9081168352908201929092526040016000205482549116908110612cee57612cee614bd8565b6000918252602090912060039091020180546c01000000000000000000000000900465ffffffffffff1690600c612d2483614e7e565b91906101000a81548165ffffffffffff021916908365ffffffffffff16021790555050818161ffff1681518110612d5d57612d5d614bd8565b60200260200101516000015161ffff167f13a5f6f4e9110e9f4d273e076ddc72525351be743d470b236e1b0910532a42f1612dbc848461ffff1681518110612da757612da7614bd8565b60200260200101516000015161ffff166113c3565b6040516001600160a01b03909116815260200160405180910390a280612de181614bee565b915050612a1a565b6000818152600360205260409020546001600160a01b0316612e4d5760405162461bcd60e51b815260206004820152601860248201527f4552433732313a20696e76616c696420746f6b656e20494400000000000000006044820152606401610c36565b50565b600081815260056020526040902080547fffffffffffffffffffffffff0000000000000000000000000000000000000000166001600160a01b0384169081179091558190612e9d826113c3565b6001600160a01b03167f8c5be1e5ebec7d5bd14f71427d1e84f3dd0314c0f7b2291e5b200ac8c7c3b92560405160405180910390a45050565b600080612ee2836113c3565b9050806001600160a01b0316846001600160a01b03161480612f2957506001600160a01b0380821660009081526006602090815260408083209388168352929052205460ff165b80612f4d5750836001600160a01b0316612f42846108bb565b6001600160a01b0316145b949350505050565b826001600160a01b0316612f68826113c3565b6001600160a01b031614612fe45760405162461bcd60e51b815260206004820152602560248201527f4552433732313a207472616e736665722066726f6d20696e636f72726563742060448201527f6f776e65720000000000000000000000000000000000000000000000000000006064820152608401610c36565b6001600160a01b03821661305f5760405162461bcd60e51b8152602060048201526024808201527f4552433732313a207472616e7366657220746f20746865207a65726f2061646460448201527f72657373000000000000000000000000000000000000000000000000000000006064820152608401610c36565b61306c8383836001613909565b826001600160a01b031661307f826113c3565b6001600160a01b0316146130fb5760405162461bcd60e51b815260206004820152602560248201527f4552433732313a207472616e736665722066726f6d20696e636f72726563742060448201527f6f776e65720000000000000000000000000000000000000000000000000000006064820152608401610c36565b600081815260056020908152604080832080547fffffffffffffffffffffffff00000000000000000000000000000000000000009081169091556001600160a01b0387811680865260048552838620805460001901905590871680865283862080546001019055868652600390945282852080549092168417909155905184937fddf252ad1be2c89b69c2b068fc378daa952ba7f163c4a11628f55a4df523b3ef91a4505050565b60006131ad613991565b6040518060a0016040528060678152602001614f8a606791396040516020016131d69190614e99565b60405160208183030381529060405280519060200120836000015184602001516132038660400151613a5b565b6040805160208101959095526001600160a01b039093169284019290925265ffffffffffff166060830152608082015260a0016040516020818303038152906040528051906020012060405160200161328e9291907f190100000000000000000000000000000000000000000000000000000000000081526002810192909252602282015260420190565b604051602081830303815290604052805190602001209050919050565b604080516080808201835261ffff87811683526fffffffffffffffffffffffffffffffff19871660208085019182526000858701818152606087018281526007805465ffffffffffff9081168552600b909552989092209651875494519151925195167fffffffffffffffffffffffffffff00000000000000000000000000000000000090941693909317620100009390951c92909202939093177fffffffffffffffffffffffff0000ffffffffffffffffffffffffffffffffffff167201000000000000000000000000000000000000911515919091027fffffffffffffffffffffffff00ffffffffffffffffffffffffffffffffffffff1617730100000000000000000000000000000000000000911515919091021790915590546133d491879116613acf565b600754604080516fffffffffffffffffffffffffffffffff19861681526020810185905262ffffff841681830152905165ffffffffffff909216917f5a92380cd29188c9a432b557ec118165d07f2076731126de1201ce4e8d6a13be9181900360600190a26007805465ffffffffffff1690600061345183614e7e565b91906101000a81548165ffffffffffff021916908365ffffffffffff160217905550505050505050565b6001600160a01b0382166323b872dd336040516001600160e01b031960e084901b1681526001600160a01b039091166004820152306024820152604481018490526064016020604051808303816000875af11580156134de573d6000803e3d6000fd5b505050506040513d601f19601f820116820180604052508101906135029190614c0f565b6113bf57600080fd5b816001600160a01b0316836001600160a01b03160361356c5760405162461bcd60e51b815260206004820152601960248201527f4552433732313a20617070726f766520746f2063616c6c6572000000000000006044820152606401610c36565b6001600160a01b03838116600081815260066020908152604080832094871680845294825291829020805460ff191686151590811790915591519182527f17307eab39ab6107e8899845ad3d59bd9653f200f220920489ca2b5937696c31910160405180910390a3505050565b6135e4848484612f55565b6135f084848484613c80565b6110585760405162461bcd60e51b815260206004820152603260248201527f4552433732313a207472616e7366657220746f206e6f6e20455243373231526560448201527f63656976657220696d706c656d656e74657200000000000000000000000000006064820152608401610c36565b804710156136b25760405162461bcd60e51b815260206004820152601d60248201527f416464726573733a20696e73756666696369656e742062616c616e63650000006044820152606401610c36565b6000826001600160a01b03168260405160006040518083038185875af1925050503d80600081146136ff576040519150601f19603f3d011682016040523d82523d6000602084013e613704565b606091505b5050905080610cd75760405162461bcd60e51b815260206004820152603a60248201527f416464726573733a20756e61626c6520746f2073656e642076616c75652c207260448201527f6563697069656e74206d617920686176652072657665727465640000000000006064820152608401610c36565b60006137a033845161ffff9081166000908152600b6020526040902054859116610e33565b156137ad57506001610823565b826000015161ffff1683604001516020015165ffffffffffff161480156137e857506040838101510151516001600160e01b03198381169116145b8015613819575060408084015151845161ffff9081166000908152600b602052929092205461381992859116610e33565b156138385761382b8360400151610d6a565b1561383857506001610823565b50600092915050565b815160009033906138559061ffff166113c3565b6001600160a01b03160361386b57506001610823565b826000015161ffff1683604001516020015165ffffffffffff161480156138a657506040838101510151516001600160e01b03198381169116145b156138f75782516138ba9061ffff166113c3565b6001600160a01b03168360400151600001516001600160a01b03161480156138ea57506138ea8360400151610d6a565b156138f757506001610823565b610ea0836000015184602001516129f0565b6001811115611058576001600160a01b0384161561394f576001600160a01b03841660009081526004602052604081208054839290613949908490614c2c565b90915550505b6001600160a01b03831615611058576001600160a01b03831660009081526004602052604081208054839290613986908490614bc5565b909155505050505050565b6000604051806080016040528060528152602001614f38605291396040516020016139bc9190614e99565b604051602081830303815290604052805190602001207f49daf7256c779daecb4b152cd71e1e6199709f81ddeab7b28aec20b02f69e4257fad7c5bef027816a800da1736444fb58a807ef4c9603b7848673f7e3a68eb14a5613a1b4690565b604080516020810195909552840192909252606083015260808201523060a082015260c00160405160208183030381529060405280519060200120905090565b6000604051806060016040528060298152602001614f0f60299139604051602001613a869190614e99565b60408051601f198184030181528282528051602091820120855186830151928501919091526001600160e01b0319169183019190915263ffffffff16606082015260800161328e565b6001600160a01b038216613b255760405162461bcd60e51b815260206004820181905260248201527f4552433732313a206d696e7420746f20746865207a65726f20616464726573736044820152606401610c36565b6000818152600360205260409020546001600160a01b031615613b8a5760405162461bcd60e51b815260206004820152601c60248201527f4552433732313a20746f6b656e20616c7265616479206d696e746564000000006044820152606401610c36565b613b98600083836001613909565b6000818152600360205260409020546001600160a01b031615613bfd5760405162461bcd60e51b815260206004820152601c60248201527f4552433732313a20746f6b656e20616c7265616479206d696e746564000000006044820152606401610c36565b6001600160a01b038216600081815260046020908152604080832080546001019055848352600390915280822080547fffffffffffffffffffffffff0000000000000000000000000000000000000000168417905551839291907fddf252ad1be2c89b69c2b068fc378daa952ba7f163c4a11628f55a4df523b3ef908290a45050565b60006001600160a01b0384163b15613dfe576040517f150b7a020000000000000000000000000000000000000000000000000000000081526001600160a01b0385169063150b7a0290613cdd903390899088908890600401614eb5565b6020604051808303816000875af1925050508015613d18575060408051601f3d908101601f19168201909252613d1591810190614ef1565b60015b613dcb573d808015613d46576040519150601f19603f3d011682016040523d82523d6000602084013e613d4b565b606091505b508051600003613dc35760405162461bcd60e51b815260206004820152603260248201527f4552433732313a207472616e7366657220746f206e6f6e20455243373231526560448201527f63656976657220696d706c656d656e74657200000000000000000000000000006064820152608401610c36565b805181602001fd5b6001600160e01b0319167f150b7a0200000000000000000000000000000000000000000000000000000000149050612f4d565b506001949350505050565b6001600160e01b031981168114612e4d57600080fd5b600060208284031215613e3157600080fd5b8135610ea081613e09565b60005b83811015613e57578181015183820152602001613e3f565b50506000910152565b60008151808452613e78816020860160208601613e3c565b601f01601f19169290920160200192915050565b602081526000610ea06020830184613e60565b600060208284031215613eb157600080fd5b5035919050565b634e487b7160e01b600052604160045260246000fd5b60405160c0810167ffffffffffffffff81118282101715613ef157613ef1613eb8565b60405290565b6040805190810167ffffffffffffffff81118282101715613ef157613ef1613eb8565b60405160a0810167ffffffffffffffff81118282101715613ef157613ef1613eb8565b6040516080810167ffffffffffffffff81118282101715613ef157613ef1613eb8565b6040516060810167ffffffffffffffff81118282101715613ef157613ef1613eb8565b604051601f8201601f1916810167ffffffffffffffff81118282101715613fac57613fac613eb8565b604052919050565b600067ffffffffffffffff821115613fce57613fce613eb8565b5060051b60200190565b6001600160a01b0381168114612e4d57600080fd5b8035613ff881613fd8565b919050565b6000806040838503121561401057600080fd5b823567ffffffffffffffff81111561402757600080fd5b8301601f8101851361403857600080fd5b8035602061404d61404883613fb4565b613f83565b82815260059290921b8301810191818101908884111561406c57600080fd5b938201935b8385101561409357843561408481613e09565b82529382019390820190614071565b95506140a29050868201613fed565b93505050509250929050565b6000602080830181845280855180835260408601915060408160051b87010192508387016000805b8381101561412c57888603603f19018552825180518088529088019088880190845b8181101561411657835115158352928a0192918a01916001016140f8565b50909750505093860193918601916001016140d6565b509398975050505050505050565b6000806040838503121561414d57600080fd5b823561415881613fd8565b946020939093013593505050565b803565ffffffffffff81168114613ff857600080fd5b803560ff81168114613ff857600080fd5b600081830360e08112156141a057600080fd5b6141a8613ece565b915082356141b581613fd8565b82526141c360208401614166565b60208301526040603f19820112156141da57600080fd5b506141e3613ef7565b60408301356141f181613e09565b8152606083013563ffffffff8116811461420a57600080fd5b60208201526040820152608082810135606083015260a08301359082015261423460c0830161417c565b60a082015292915050565b600060e0828403121561425157600080fd5b610ea0838361418d565b60008060006060848603121561427057600080fd5b833561427b81613fd8565b9250602084013561428b81613fd8565b929592945050506040919091013590565b803561ffff81168114613ff857600080fd5b6000806000606084860312156142c357600080fd5b83356142ce81613fd8565b925060208401356142de81613e09565b91506142ec6040850161429c565b90509250925092565b60006020828403121561430757600080fd5b610ea082614166565b600082601f83011261432157600080fd5b8135602061433161404883613fb4565b82815260a0928302850182019282820191908785111561435057600080fd5b8387015b858110156143c95781818a03121561436c5760008081fd5b614374613f1a565b61437d82614166565b815261438a868301614166565b86820152604061439b818401614166565b908201526060828101356143ae81613fd8565b90820152608082810135908201528452928401928101614354565b5090979650505050505050565b6000602082840312156143e857600080fd5b813567ffffffffffffffff8111156143ff57600080fd5b612f4d84828501614310565b600081518084526020808501945080840160005b8381101561443b5781518752958201959082019060010161441f565b509495945050505050565b6000606080835261445981840187613e60565b83810360208581019190915286518083528782019282019060005b818110156144d0578451805165ffffffffffff90811685528582015181168686015260408083015190911690850152868101516001600160a01b031687850152608090810151908401529383019360a090920191600101614474565b505085810360408701526144e4818861440b565b9998505050505050505050565b60006020828403121561450357600080fd5b8135610ea081613fd8565b80356fffffffffffffffffffffffffffffffff1981168114613ff857600080fd5b6000602080838503121561454257600080fd5b823567ffffffffffffffff8082111561455a57600080fd5b818501915085601f83011261456e57600080fd5b813561457c61404882613fb4565b81815260059190911b8301840190848101908883111561459b57600080fd5b8585015b8381101561468f578035858111156145b657600080fd5b86016080818c03601f190112156145cc57600080fd5b6145d4613f3d565b6145df89830161429c565b815260406145ee81840161429c565b8a83015260608301358183015260808301358881111561460e5760008081fd5b8084019350508c603f8401126146245760008081fd5b8983013561463461404882613fb4565b81815260059190911b84018201908b8101908f8311156146545760008081fd5b948301945b828610156146795761466a8661450e565b8252948c0194908c0190614659565b606085015250505084525091860191860161459f565b5098975050505050505050565b600080604083850312156146af57600080fd5b6141588361450e565b8015158114612e4d57600080fd5b8035613ff8816146b8565b600080604083850312156146e457600080fd5b82356146ef81613fd8565b915060208301356146ff816146b8565b809150509250929050565b6000806000806080858703121561472057600080fd5b843561472b81613fd8565b935060208581013561473c81613fd8565b935060408601359250606086013567ffffffffffffffff8082111561476057600080fd5b818801915088601f83011261477457600080fd5b81358181111561478657614786613eb8565b61479884601f19601f84011601613f83565b915080825289848285010111156147ae57600080fd5b808484018584013760008482840101525080935050505092959194509250565b600082601f8301126147df57600080fd5b813560206147ef61404883613fb4565b82815260059290921b8401810191818101908684111561480e57600080fd5b8286015b8481101561491957803567ffffffffffffffff8082111561483257600080fd5b908801906080828b03601f1901121561484b5760008081fd5b614853613f3d565b8683013561486081613fd8565b815260408381013561487181613e09565b82890152606084810135848111156148895760008081fd5b85019350603f84018d1361489d5760008081fd5b888401356148ad61404882613fb4565b81815260059190911b85018301908a8101908f8311156148cd5760008081fd5b958401955b828710156148f2576148e38761429c565b8252958b0195908b01906148d2565b85850152506149059050608086016146c6565b908301525085525050918301918301614812565b509695505050505050565b60008060008060006080868803121561493c57600080fd5b853561494781613fd8565b9450602086013567ffffffffffffffff8082111561496457600080fd5b818801915088601f83011261497857600080fd5b81358181111561498757600080fd5b89602082850101111561499957600080fd5b6020830196508095505060408801359150808211156149b757600080fd5b6149c389838a01614310565b935060608801359150808211156149d957600080fd5b506149e6888289016147ce565b9150509295509295909350565b600060208284031215614a0557600080fd5b813567ffffffffffffffff811115614a1c57600080fd5b612f4d848285016147ce565b60008060408385031215614a3b57600080fd5b8235614a4681613fd8565b915060208301356146ff81613fd8565b60008060408385031215614a6957600080fd5b8235614a7481613e09565b9150614a826020840161429c565b90509250929050565b60008060408385031215614a9e57600080fd5b6141588361429c565b60006020808385031215614aba57600080fd5b823567ffffffffffffffff811115614ad157600080fd5b8301601f81018513614ae257600080fd5b8035614af061404882613fb4565b8181526101209182028301840191848201919088841115614b1057600080fd5b938501935b83851015614b695780858a031215614b2d5760008081fd5b614b35613f60565b614b3e8661429c565b815286860135878201526040614b568b82890161418d565b9082015283529384019391850191614b15565b50979650505050505050565b600181811c90821680614b8957607f821691505b602082108103614ba957634e487b7160e01b600052602260045260246000fd5b50919050565b634e487b7160e01b600052601160045260246000fd5b8082018082111561082357610823614baf565b634e487b7160e01b600052603260045260246000fd5b600061ffff808316818103614c0557614c05614baf565b6001019392505050565b600060208284031215614c2157600080fd5b8151610ea0816146b8565b8181038181111561082357610823614baf565b600060208284031215614c5157600080fd5b5051919050565b65ffffffffffff818116838216019080821115614c7757614c77614baf565b5092915050565b600062ffffff808316818103614c0557614c05614baf565b808202811582820484141761082357610823614baf565b601f821115610cd757600081815260208120601f850160051c81016020861015614cd45750805b601f850160051c820191505b81811015614cf357828155600101614ce0565b505050505050565b67ffffffffffffffff831115614d1357614d13613eb8565b614d2783614d218354614b75565b83614cad565b6000601f841160018114614d5b5760008515614d435750838201355b600019600387901b1c1916600186901b178355614db5565b600083815260209020601f19861690835b82811015614d8c5786850135825560209485019460019092019101614d6c565b5086821015614da95760001960f88860031b161c19848701351681555b505060018560011b0183555b5050505050565b60006001600160a01b03808616835260208186168185015260606040850152600091508454614dea81614b75565b8060608701526080600180841660008114614e0c5760018114614e2657614e54565b60ff198516838a01528284151560051b8a01019650614e54565b896000528560002060005b85811015614e4c5781548b8201860152908301908701614e31565b8a0184019750505b50949a9950505050505050505050565b60006000198203614e7757614e77614baf565b5060010190565b600065ffffffffffff808316818103614c0557614c05614baf565b60008251614eab818460208701613e3c565b9190910192915050565b60006001600160a01b03808716835280861660208401525083604083015260806060830152614ee76080830184613e60565b9695505050505050565b600060208284031215614f0357600080fd5b8151610ea081613e0956fe4d656d6f72616e64756d286279746573342073656c6563746f722c75696e7433322065787069726529454950373132446f6d61696e28737472696e67206e616d652c737472696e672076657273696f6e2c75696e7432353620636861696e49642c6164647265737320766572696679696e67436f6e747261637429436572746966696361746528616464726573732066726f6d2c75696e74343820746f6b656e49642c4d656d6f72616e64756d206d656d6f72616e64756d294d656d6f72616e64756d286279746573342073656c6563746f722c75696e7433322065787069726529a264697066735822122082159a3caca3b486edcfbfdaf2803641d245d019234f11f500be04599afb89eb64736f6c63430008110033",
  "devdoc": {
    "kind": "dev",
    "methods": {
      "approve(address,uint256)": {
        "details": "See {IERC721-approve}."
      },
      "balanceOf(address)": {
        "details": "See {IERC721-balanceOf}."
      },
      "getApproved(uint256)": {
        "details": "See {IERC721-getApproved}."
      },
      "isApprovedForAll(address,address)": {
        "details": "See {IERC721-isApprovedForAll}."
      },
      "name()": {
        "details": "See {IERC721Metadata-name}."
      },
      "ownerOf(uint256)": {
        "details": "See {IERC721-ownerOf}."
      },
      "safeTransferFrom(address,address,uint256)": {
        "details": "See {IERC721-safeTransferFrom}."
      },
      "safeTransferFrom(address,address,uint256,bytes)": {
        "details": "See {IERC721-safeTransferFrom}."
      },
      "setApprovalForAll(address,bool)": {
        "details": "See {IERC721-setApprovalForAll}."
      },
      "supportsInterface(bytes4)": {
        "details": "See {IERC165-supportsInterface}."
      },
      "symbol()": {
        "details": "See {IERC721Metadata-symbol}."
      },
      "tokenURI(uint256)": {
        "details": "See {IERC721Metadata-tokenURI}."
      },
      "transferFrom(address,address,uint256)": {
        "details": "See {IERC721-transferFrom}."
      }
    },
    "version": 1
  },
  "userdoc": {
    "kind": "user",
    "methods": {},
    "version": 1
  },
  "storageLayout": {
    "storage": [
      {
        "astId": 5474,
        "contract": "contracts/Rouge.sol:Rouge",
        "label": "singleton",
        "offset": 0,
        "slot": "0",
        "type": "t_address"
      },
      {
        "astId": 718,
        "contract": "contracts/Rouge.sol:Rouge",
        "label": "_name",
        "offset": 0,
        "slot": "1",
        "type": "t_string_storage"
      },
      {
        "astId": 720,
        "contract": "contracts/Rouge.sol:Rouge",
        "label": "_symbol",
        "offset": 0,
        "slot": "2",
        "type": "t_string_storage"
      },
      {
        "astId": 724,
        "contract": "contracts/Rouge.sol:Rouge",
        "label": "_owners",
        "offset": 0,
        "slot": "3",
        "type": "t_mapping(t_uint256,t_address)"
      },
      {
        "astId": 728,
        "contract": "contracts/Rouge.sol:Rouge",
        "label": "_balances",
        "offset": 0,
        "slot": "4",
        "type": "t_mapping(t_address,t_uint256)"
      },
      {
        "astId": 732,
        "contract": "contracts/Rouge.sol:Rouge",
        "label": "_tokenApprovals",
        "offset": 0,
        "slot": "5",
        "type": "t_mapping(t_uint256,t_address)"
      },
      {
        "astId": 738,
        "contract": "contracts/Rouge.sol:Rouge",
        "label": "_operatorApprovals",
        "offset": 0,
        "slot": "6",
        "type": "t_mapping(t_address,t_mapping(t_address,t_bool))"
      },
      {
        "astId": 3270,
        "contract": "contracts/Rouge.sol:Rouge",
        "label": "_nextTokenId",
        "offset": 0,
        "slot": "7",
        "type": "t_uint48"
      },
      {
        "astId": 3273,
        "contract": "contracts/Rouge.sol:Rouge",
        "label": "ready",
        "offset": 6,
        "slot": "7",
        "type": "t_bool"
      },
      {
        "astId": 3275,
        "contract": "contracts/Rouge.sol:Rouge",
        "label": "URI",
        "offset": 0,
        "slot": "8",
        "type": "t_string_storage"
      },
      {
        "astId": 3309,
        "contract": "contracts/Rouge.sol:Rouge",
        "label": "_role",
        "offset": 0,
        "slot": "9",
        "type": "t_mapping(t_bytes4,t_struct(Role)3304_storage)"
      },
      {
        "astId": 3378,
        "contract": "contracts/Rouge.sol:Rouge",
        "label": "_channel",
        "offset": 0,
        "slot": "10",
        "type": "t_array(t_struct(Channel)3374_storage)dyn_storage"
      },
      {
        "astId": 3864,
        "contract": "contracts/Rouge.sol:Rouge",
        "label": "_nft",
        "offset": 0,
        "slot": "11",
        "type": "t_mapping(t_uint48,t_struct(NFT)3859_storage)"
      }
    ],
    "types": {
      "t_address": {
        "encoding": "inplace",
        "label": "address",
        "numberOfBytes": "20"
      },
      "t_array(t_struct(Channel)3374_storage)dyn_storage": {
        "base": "t_struct(Channel)3374_storage",
        "encoding": "dynamic_array",
        "label": "struct Rouge.Channel[]",
        "numberOfBytes": "32"
      },
      "t_bool": {
        "encoding": "inplace",
        "label": "bool",
        "numberOfBytes": "1"
      },
      "t_bytes16": {
        "encoding": "inplace",
        "label": "bytes16",
        "numberOfBytes": "16"
      },
      "t_bytes4": {
        "encoding": "inplace",
        "label": "bytes4",
        "numberOfBytes": "4"
      },
      "t_mapping(t_address,t_bool)": {
        "encoding": "mapping",
        "key": "t_address",
        "label": "mapping(address => bool)",
        "numberOfBytes": "32",
        "value": "t_bool"
      },
      "t_mapping(t_address,t_mapping(t_address,t_bool))": {
        "encoding": "mapping",
        "key": "t_address",
        "label": "mapping(address => mapping(address => bool))",
        "numberOfBytes": "32",
        "value": "t_mapping(t_address,t_bool)"
      },
      "t_mapping(t_address,t_uint256)": {
        "encoding": "mapping",
        "key": "t_address",
        "label": "mapping(address => uint256)",
        "numberOfBytes": "32",
        "value": "t_uint256"
      },
      "t_mapping(t_bytes4,t_struct(Role)3304_storage)": {
        "encoding": "mapping",
        "key": "t_bytes4",
        "label": "mapping(bytes4 => struct Rouge.Role)",
        "numberOfBytes": "32",
        "value": "t_struct(Role)3304_storage"
      },
      "t_mapping(t_uint16,t_mapping(t_address,t_bool))": {
        "encoding": "mapping",
        "key": "t_uint16",
        "label": "mapping(uint16 => mapping(address => bool))",
        "numberOfBytes": "32",
        "value": "t_mapping(t_address,t_bool)"
      },
      "t_mapping(t_uint256,t_address)": {
        "encoding": "mapping",
        "key": "t_uint256",
        "label": "mapping(uint256 => address)",
        "numberOfBytes": "32",
        "value": "t_address"
      },
      "t_mapping(t_uint48,t_struct(NFT)3859_storage)": {
        "encoding": "mapping",
        "key": "t_uint48",
        "label": "mapping(uint48 => struct Rouge.NFT)",
        "numberOfBytes": "32",
        "value": "t_struct(NFT)3859_storage"
      },
      "t_string_storage": {
        "encoding": "bytes",
        "label": "string",
        "numberOfBytes": "32"
      },
      "t_struct(Channel)3374_storage": {
        "encoding": "inplace",
        "label": "struct Rouge.Channel",
        "members": [
          {
            "astId": 3365,
            "contract": "contracts/Rouge.sol:Rouge",
            "label": "supply",
            "offset": 0,
            "slot": "0",
            "type": "t_uint48"
          },
          {
            "astId": 3367,
            "contract": "contracts/Rouge.sol:Rouge",
            "label": "totalAcquired",
            "offset": 6,
            "slot": "0",
            "type": "t_uint48"
          },
          {
            "astId": 3369,
            "contract": "contracts/Rouge.sol:Rouge",
            "label": "totalRedeemed",
            "offset": 12,
            "slot": "0",
            "type": "t_uint48"
          },
          {
            "astId": 3371,
            "contract": "contracts/Rouge.sol:Rouge",
            "label": "token",
            "offset": 0,
            "slot": "1",
            "type": "t_address"
          },
          {
            "astId": 3373,
            "contract": "contracts/Rouge.sol:Rouge",
            "label": "amount",
            "offset": 0,
            "slot": "2",
            "type": "t_uint256"
          }
        ],
        "numberOfBytes": "96"
      },
      "t_struct(NFT)3859_storage": {
        "encoding": "inplace",
        "label": "struct Rouge.NFT",
        "members": [
          {
            "astId": 3852,
            "contract": "contracts/Rouge.sol:Rouge",
            "label": "channelId",
            "offset": 0,
            "slot": "0",
            "type": "t_uint16"
          },
          {
            "astId": 3854,
            "contract": "contracts/Rouge.sol:Rouge",
            "label": "stamp",
            "offset": 2,
            "slot": "0",
            "type": "t_bytes16"
          },
          {
            "astId": 3856,
            "contract": "contracts/Rouge.sol:Rouge",
            "label": "redeemed",
            "offset": 18,
            "slot": "0",
            "type": "t_bool"
          },
          {
            "astId": 3858,
            "contract": "contracts/Rouge.sol:Rouge",
            "label": "repudiated",
            "offset": 19,
            "slot": "0",
            "type": "t_bool"
          }
        ],
        "numberOfBytes": "32"
      },
      "t_struct(Role)3304_storage": {
        "encoding": "inplace",
        "label": "struct Rouge.Role",
        "members": [
          {
            "astId": 3303,
            "contract": "contracts/Rouge.sol:Rouge",
            "label": "scope",
            "offset": 0,
            "slot": "0",
            "type": "t_mapping(t_uint16,t_mapping(t_address,t_bool))"
          }
        ],
        "numberOfBytes": "32"
      },
      "t_uint16": {
        "encoding": "inplace",
        "label": "uint16",
        "numberOfBytes": "2"
      },
      "t_uint256": {
        "encoding": "inplace",
        "label": "uint256",
        "numberOfBytes": "32"
      },
      "t_uint48": {
        "encoding": "inplace",
        "label": "uint48",
        "numberOfBytes": "6"
      }
    }
  }
}